{
  "contractName": "CustomNFT1155",
  "abi": [
    {
      "inputs": [
        {
          "internalType": "string",
          "name": "_name",
          "type": "string"
        },
        {
          "internalType": "string",
          "name": "_symbol",
          "type": "string"
        },
        {
          "internalType": "address",
          "name": "signer",
          "type": "address"
        },
        {
          "internalType": "string",
          "name": "contractURI",
          "type": "string"
        },
        {
          "internalType": "string",
          "name": "tokenURIPrefix",
          "type": "string"
        }
      ],
      "stateMutability": "nonpayable",
      "type": "constructor"
    },
    {
      "anonymous": false,
      "inputs": [
        {
          "indexed": true,
          "internalType": "address",
          "name": "_owner",
          "type": "address"
        },
        {
          "indexed": true,
          "internalType": "address",
          "name": "_operator",
          "type": "address"
        },
        {
          "indexed": false,
          "internalType": "bool",
          "name": "_approved",
          "type": "bool"
        }
      ],
      "name": "ApprovalForAll",
      "type": "event"
    },
    {
      "anonymous": false,
      "inputs": [
        {
          "indexed": true,
          "internalType": "address",
          "name": "creator",
          "type": "address"
        },
        {
          "indexed": false,
          "internalType": "string",
          "name": "name",
          "type": "string"
        },
        {
          "indexed": false,
          "internalType": "string",
          "name": "symbol",
          "type": "string"
        }
      ],
      "name": "CreateERC1155",
      "type": "event"
    },
    {
      "anonymous": false,
      "inputs": [
        {
          "indexed": true,
          "internalType": "address",
          "name": "previousOwner",
          "type": "address"
        },
        {
          "indexed": true,
          "internalType": "address",
          "name": "newOwner",
          "type": "address"
        }
      ],
      "name": "OwnershipTransferred",
      "type": "event"
    },
    {
      "anonymous": false,
      "inputs": [
        {
          "indexed": false,
          "internalType": "uint256",
          "name": "tokenId",
          "type": "uint256"
        },
        {
          "indexed": false,
          "internalType": "address[]",
          "name": "recipients",
          "type": "address[]"
        },
        {
          "indexed": false,
          "internalType": "uint256[]",
          "name": "bps",
          "type": "uint256[]"
        }
      ],
      "name": "SecondarySaleFees",
      "type": "event"
    },
    {
      "anonymous": false,
      "inputs": [
        {
          "indexed": true,
          "internalType": "address",
          "name": "account",
          "type": "address"
        }
      ],
      "name": "SignerAdded",
      "type": "event"
    },
    {
      "anonymous": false,
      "inputs": [
        {
          "indexed": true,
          "internalType": "address",
          "name": "account",
          "type": "address"
        }
      ],
      "name": "SignerRemoved",
      "type": "event"
    },
    {
      "anonymous": false,
      "inputs": [
        {
          "indexed": true,
          "internalType": "address",
          "name": "_operator",
          "type": "address"
        },
        {
          "indexed": true,
          "internalType": "address",
          "name": "_from",
          "type": "address"
        },
        {
          "indexed": true,
          "internalType": "address",
          "name": "_to",
          "type": "address"
        },
        {
          "indexed": false,
          "internalType": "uint256[]",
          "name": "_ids",
          "type": "uint256[]"
        },
        {
          "indexed": false,
          "internalType": "uint256[]",
          "name": "_values",
          "type": "uint256[]"
        }
      ],
      "name": "TransferBatch",
      "type": "event"
    },
    {
      "anonymous": false,
      "inputs": [
        {
          "indexed": true,
          "internalType": "address",
          "name": "_operator",
          "type": "address"
        },
        {
          "indexed": true,
          "internalType": "address",
          "name": "_from",
          "type": "address"
        },
        {
          "indexed": true,
          "internalType": "address",
          "name": "_to",
          "type": "address"
        },
        {
          "indexed": false,
          "internalType": "uint256",
          "name": "_id",
          "type": "uint256"
        },
        {
          "indexed": false,
          "internalType": "uint256",
          "name": "_value",
          "type": "uint256"
        }
      ],
      "name": "TransferSingle",
      "type": "event"
    },
    {
      "anonymous": false,
      "inputs": [
        {
          "indexed": false,
          "internalType": "string",
          "name": "_value",
          "type": "string"
        },
        {
          "indexed": true,
          "internalType": "uint256",
          "name": "_id",
          "type": "uint256"
        }
      ],
      "name": "URI",
      "type": "event"
    },
    {
      "inputs": [
        {
          "internalType": "address",
          "name": "_owner",
          "type": "address"
        },
        {
          "internalType": "uint256",
          "name": "_id",
          "type": "uint256"
        }
      ],
      "name": "balanceOf",
      "outputs": [
        {
          "internalType": "uint256",
          "name": "",
          "type": "uint256"
        }
      ],
      "stateMutability": "view",
      "type": "function"
    },
    {
      "inputs": [
        {
          "internalType": "address[]",
          "name": "_owners",
          "type": "address[]"
        },
        {
          "internalType": "uint256[]",
          "name": "_ids",
          "type": "uint256[]"
        }
      ],
      "name": "balanceOfBatch",
      "outputs": [
        {
          "internalType": "uint256[]",
          "name": "",
          "type": "uint256[]"
        }
      ],
      "stateMutability": "view",
      "type": "function"
    },
    {
      "inputs": [
        {
          "internalType": "address",
          "name": "_owner",
          "type": "address"
        },
        {
          "internalType": "uint256",
          "name": "_id",
          "type": "uint256"
        },
        {
          "internalType": "uint256",
          "name": "_value",
          "type": "uint256"
        }
      ],
      "name": "burn",
      "outputs": [],
      "stateMutability": "nonpayable",
      "type": "function"
    },
    {
      "inputs": [],
      "name": "contractURI",
      "outputs": [
        {
          "internalType": "string",
          "name": "",
          "type": "string"
        }
      ],
      "stateMutability": "view",
      "type": "function"
    },
    {
      "inputs": [
        {
          "internalType": "uint256",
          "name": "",
          "type": "uint256"
        }
      ],
      "name": "creators",
      "outputs": [
        {
          "internalType": "address",
          "name": "",
          "type": "address"
        }
      ],
      "stateMutability": "view",
      "type": "function"
    },
    {
      "inputs": [
        {
          "internalType": "uint256",
          "name": "",
          "type": "uint256"
        },
        {
          "internalType": "uint256",
          "name": "",
          "type": "uint256"
        }
      ],
      "name": "fees",
      "outputs": [
        {
          "internalType": "address payable",
          "name": "recipient",
          "type": "address"
        },
        {
          "internalType": "uint256",
          "name": "value",
          "type": "uint256"
        }
      ],
      "stateMutability": "view",
      "type": "function"
    },
    {
      "inputs": [
        {
          "internalType": "uint256",
          "name": "id",
          "type": "uint256"
        }
      ],
      "name": "getFeeBps",
      "outputs": [
        {
          "internalType": "uint256[]",
          "name": "",
          "type": "uint256[]"
        }
      ],
      "stateMutability": "view",
      "type": "function"
    },
    {
      "inputs": [
        {
          "internalType": "uint256",
          "name": "id",
          "type": "uint256"
        }
      ],
      "name": "getFeeRecipients",
      "outputs": [
        {
          "internalType": "address payable[]",
          "name": "",
          "type": "address[]"
        }
      ],
      "stateMutability": "view",
      "type": "function"
    },
    {
      "inputs": [
        {
          "internalType": "address",
          "name": "_owner",
          "type": "address"
        },
        {
          "internalType": "address",
          "name": "_operator",
          "type": "address"
        }
      ],
      "name": "isApprovedForAll",
      "outputs": [
        {
          "internalType": "bool",
          "name": "",
          "type": "bool"
        }
      ],
      "stateMutability": "view",
      "type": "function"
    },
    {
      "inputs": [
        {
          "internalType": "address",
          "name": "account",
          "type": "address"
        }
      ],
      "name": "isSigner",
      "outputs": [
        {
          "internalType": "bool",
          "name": "",
          "type": "bool"
        }
      ],
      "stateMutability": "view",
      "type": "function"
    },
    {
      "inputs": [],
      "name": "name",
      "outputs": [
        {
          "internalType": "string",
          "name": "",
          "type": "string"
        }
      ],
      "stateMutability": "view",
      "type": "function"
    },
    {
      "inputs": [],
      "name": "owner",
      "outputs": [
        {
          "internalType": "address",
          "name": "",
          "type": "address"
        }
      ],
      "stateMutability": "view",
      "type": "function"
    },
    {
      "inputs": [],
      "name": "renounceOwnership",
      "outputs": [],
      "stateMutability": "nonpayable",
      "type": "function"
    },
    {
      "inputs": [],
      "name": "renounceSigner",
      "outputs": [],
      "stateMutability": "nonpayable",
      "type": "function"
    },
    {
      "inputs": [
        {
          "internalType": "address",
          "name": "_from",
          "type": "address"
        },
        {
          "internalType": "address",
          "name": "_to",
          "type": "address"
        },
        {
          "internalType": "uint256[]",
          "name": "_ids",
          "type": "uint256[]"
        },
        {
          "internalType": "uint256[]",
          "name": "_values",
          "type": "uint256[]"
        },
        {
          "internalType": "bytes",
          "name": "_data",
          "type": "bytes"
        }
      ],
      "name": "safeBatchTransferFrom",
      "outputs": [],
      "stateMutability": "nonpayable",
      "type": "function"
    },
    {
      "inputs": [
        {
          "internalType": "address",
          "name": "_from",
          "type": "address"
        },
        {
          "internalType": "address",
          "name": "_to",
          "type": "address"
        },
        {
          "internalType": "uint256",
          "name": "_id",
          "type": "uint256"
        },
        {
          "internalType": "uint256",
          "name": "_value",
          "type": "uint256"
        },
        {
          "internalType": "bytes",
          "name": "_data",
          "type": "bytes"
        }
      ],
      "name": "safeTransferFrom",
      "outputs": [],
      "stateMutability": "nonpayable",
      "type": "function"
    },
    {
      "inputs": [
        {
          "internalType": "address",
          "name": "_operator",
          "type": "address"
        },
        {
          "internalType": "bool",
          "name": "_approved",
          "type": "bool"
        }
      ],
      "name": "setApprovalForAll",
      "outputs": [],
      "stateMutability": "nonpayable",
      "type": "function"
    },
    {
      "inputs": [
        {
          "internalType": "string",
          "name": "contractURI",
          "type": "string"
        }
      ],
      "name": "setContractURI",
      "outputs": [],
      "stateMutability": "nonpayable",
      "type": "function"
    },
    {
      "inputs": [
        {
          "internalType": "string",
          "name": "tokenURIPrefix",
          "type": "string"
        }
      ],
      "name": "setTokenURIPrefix",
      "outputs": [],
      "stateMutability": "nonpayable",
      "type": "function"
    },
    {
      "inputs": [
        {
          "internalType": "bytes4",
          "name": "interfaceId",
          "type": "bytes4"
        }
      ],
      "name": "supportsInterface",
      "outputs": [
        {
          "internalType": "bool",
          "name": "",
          "type": "bool"
        }
      ],
      "stateMutability": "view",
      "type": "function"
    },
    {
      "inputs": [],
      "name": "symbol",
      "outputs": [
        {
          "internalType": "string",
          "name": "",
          "type": "string"
        }
      ],
      "stateMutability": "view",
      "type": "function"
    },
    {
      "inputs": [],
      "name": "tokenURIPrefix",
      "outputs": [
        {
          "internalType": "string",
          "name": "",
          "type": "string"
        }
      ],
      "stateMutability": "view",
      "type": "function"
    },
    {
      "inputs": [
        {
          "internalType": "address",
          "name": "newOwner",
          "type": "address"
        }
      ],
      "name": "transferOwnership",
      "outputs": [],
      "stateMutability": "nonpayable",
      "type": "function"
    },
    {
      "inputs": [
        {
          "internalType": "uint256",
          "name": "_id",
          "type": "uint256"
        }
      ],
      "name": "uri",
      "outputs": [
        {
          "internalType": "string",
          "name": "",
          "type": "string"
        }
      ],
      "stateMutability": "view",
      "type": "function"
    },
    {
      "inputs": [
        {
          "internalType": "address",
          "name": "account",
          "type": "address"
        }
      ],
      "name": "addSigner",
      "outputs": [],
      "stateMutability": "nonpayable",
      "type": "function"
    },
    {
      "inputs": [
        {
          "internalType": "address",
          "name": "account",
          "type": "address"
        }
      ],
      "name": "removeSigner",
      "outputs": [],
      "stateMutability": "nonpayable",
      "type": "function"
    },
    {
      "inputs": [
        {
          "internalType": "uint256",
          "name": "id",
          "type": "uint256"
        },
        {
          "internalType": "uint8",
          "name": "v",
          "type": "uint8"
        },
        {
          "internalType": "bytes32",
          "name": "r",
          "type": "bytes32"
        },
        {
          "internalType": "bytes32",
          "name": "s",
          "type": "bytes32"
        },
        {
          "components": [
            {
              "internalType": "address payable",
              "name": "recipient",
              "type": "address"
            },
            {
              "internalType": "uint256",
              "name": "value",
              "type": "uint256"
            }
          ],
          "internalType": "struct ERC1155Base.Fee[]",
          "name": "fees",
          "type": "tuple[]"
        },
        {
          "internalType": "uint256",
          "name": "supply",
          "type": "uint256"
        },
        {
          "internalType": "string",
          "name": "uri",
          "type": "string"
        }
      ],
      "name": "mint",
      "outputs": [],
      "stateMutability": "nonpayable",
      "type": "function"
    }
  ],
  "bytecode": "0x60806040523480156200001157600080fd5b50604051620035d5380380620035d58339810160408190526200003491620004e9565b81818181806200004b6301ffc9a760e01b620001b4565b6200005d632dde656160e21b620001b4565b600180546001600160a01b0319163390811790915560405181906000907f8be0079c531659141344cd1fd0a4f28419497f9722a3daafe3b4186f6b6457e0908290a350620000ab3362000239565b8051620000c090600390602084019062000390565b50508151620000d89150600590602084019062000390565b50620000eb63e8a3d48560e01b620001b4565b50620000fe636cdb3d1360e11b620001b4565b505084516200011590600a90602088019062000390565b5083516200012b90600b90602087019062000390565b50620001378362000239565b620001627fe37243f27916e395706434720b54132b80ef5cc8c56f39b0df6485e8dfb697cf620001b4565b336001600160a01b03167f6389ec096801c30110c29cc87838b54c98db1e606d087183d3332416a085bbb7600a600b604051620001a192919062000664565b60405180910390a25050505050620006e9565b6001600160e01b03198082161415620002145760405162461bcd60e51b815260206004820152601c60248201527f4552433136353a20696e76616c696420696e746572666163652069640000000060448201526064015b60405180910390fd5b6001600160e01b0319166000908152602081905260409020805460ff19166001179055565b620002548160026200028b60201b6200169c1790919060201c565b6040516001600160a01b038216907f47d1c22a25bb3a5d4e481b9b1e6944c2eade3181a0a20b495ed61d35b5323f2490600090a250565b6200029782826200030b565b15620002e65760405162461bcd60e51b815260206004820152601f60248201527f526f6c65733a206163636f756e7420616c72656164792068617320726f6c650060448201526064016200020b565b6001600160a01b0316600090815260209190915260409020805460ff19166001179055565b60006001600160a01b038216620003705760405162461bcd60e51b815260206004820152602260248201527f526f6c65733a206163636f756e7420697320746865207a65726f206164647265604482015261737360f01b60648201526084016200020b565b506001600160a01b03166000908152602091909152604090205460ff1690565b8280546200039e9062000696565b90600052602060002090601f016020900481019282620003c257600085556200040d565b82601f10620003dd57805160ff19168380011785556200040d565b828001600101855582156200040d579182015b828111156200040d578251825591602001919060010190620003f0565b506200041b9291506200041f565b5090565b5b808211156200041b576000815560010162000420565b600082601f83011262000447578081fd5b81516001600160401b0380821115620004645762000464620006d3565b604051601f8301601f19908116603f011681019082821181831017156200048f576200048f620006d3565b81604052838152602092508683858801011115620004ab578485fd5b8491505b83821015620004ce5785820183015181830184015290820190620004af565b83821115620004df57848385830101525b9695505050505050565b600080600080600060a0868803121562000501578081fd5b85516001600160401b038082111562000518578283fd5b6200052689838a0162000436565b965060208801519150808211156200053c578283fd5b6200054a89838a0162000436565b604089015190965091506001600160a01b038216821462000569578283fd5b6060880151919450808211156200057e578283fd5b6200058c89838a0162000436565b93506080880151915080821115620005a2578283fd5b50620005b18882890162000436565b9150509295509295909350565b8054600090600181811c9080831680620005d957607f831692505b6020808410821415620005fa57634e487b7160e01b86526022600452602486fd5b838852602088018280156200061857600181146200062a5762000657565b60ff1987168252828201975062000657565b60008981526020902060005b87811015620006515781548482015290860190840162000636565b83019850505b5050505050505092915050565b604081526000620006796040830185620005be565b82810360208401526200068d8185620005be565b95945050505050565b600181811c90821680620006ab57607f821691505b60208210811415620006cd57634e487b7160e01b600052602260045260246000fd5b50919050565b634e487b7160e01b600052604160045260246000fd5b612edc80620006f96000396000f3fe608060405234801561001057600080fd5b50600436106101b85760003560e01c806395d89b41116100f9578063e5c8b03d11610097578063eb12d61e11610071578063eb12d61e14610428578063f242432a1461043b578063f2fde38b1461044e578063f5298aca1461046157600080fd5b8063e5c8b03d146103dc578063e8a3d485146103e4578063e985e9c5146103ec57600080fd5b8063b9c4d9fb116100d3578063b9c4d9fb14610378578063c0ac998314610398578063c6bf3262146103a0578063cd53d08e146103b357600080fd5b806395d89b411461034a57806399e0dd7c14610352578063a22cb4651461036557600080fd5b80632eb2c2d611610166578063715018a611610140578063715018a6146102f75780637df73e27146102ff5780638da5cb5b14610312578063938e3d7b1461033757600080fd5b80632eb2c2d61461029f5780634e1273f4146102b25780636308f1cd146102c557600080fd5b80630e316ab7116101975780630e316ab7146102575780630e89341c1461026c5780630ebd4c7f1461027f57600080fd5b8062fdd58e146101bd57806301ffc9a71461020557806306fdde0314610242575b600080fd5b6101f26101cb36600461284b565b60009081526006602090815260408083206001600160a01b03949094168352929052205490565b6040519081526020015b60405180910390f35b610232610213366004612913565b6001600160e01b03191660009081526020819052604090205460ff1690565b60405190151581526020016101fc565b61024a610474565b6040516101fc9190612d00565b61026a610265366004612691565b610502565b005b61024a61027a366004612986565b61056d565b61029261028d366004612986565b61057e565b6040516101fc9190612ced565b61026a6102ad3660046126e5565b6106ca565b6102926102c03660046128aa565b610aeb565b6102d86102d336600461299e565b610c2f565b604080516001600160a01b0390931683526020830191909152016101fc565b61026a610c75565b61023261030d366004612691565b610d26565b6001546001600160a01b03165b6040516001600160a01b0390911681526020016101fc565b61026a61034536600461294b565b610d33565b61024a610d96565b61026a61036036600461294b565b610da3565b61026a61037336600461281a565b610e06565b61038b610386366004612986565b610e72565b6040516101fc9190612c85565b61024a610fc3565b61026a6103ae3660046129bf565b610fd0565b61031f6103c1366004612986565b6008602052600090815260409020546001600160a01b031681565b61026a61116e565b61024a611179565b6102326103fa3660046126ad565b6001600160a01b03918216600090815260076020908152604080832093909416825291909152205460ff1690565b61026a610436366004612691565b611186565b61026a6104493660046127a0565b6111e9565b61026a61045c366004612691565b611417565b61026a61046f366004612876565b611556565b600a805461048190612df9565b80601f01602080910402602001604051908101604052809291908181526020018280546104ad90612df9565b80156104fa5780601f106104cf576101008083540402835291602001916104fa565b820191906000526020600020905b8154815290600101906020018083116104dd57829003601f168201915b505050505081565b6001546001600160a01b031633146105615760405162461bcd60e51b815260206004820181905260248201527f4f776e61626c653a2063616c6c6572206973206e6f7420746865206f776e657260448201526064015b60405180910390fd5b61056a81611718565b50565b60606105788261175a565b92915050565b6000818152600960209081526040808320805482518185028101850190935280835260609493849084015b828210156105f1576000848152602090819020604080518082019091526002850290910180546001600160a01b031682526001908101548284015290835290920191016105a9565b5050505090506000815167ffffffffffffffff81111561062157634e487b7160e01b600052604160045260246000fd5b60405190808252806020026020018201604052801561064a578160200160208202803683370190505b50905060005b82518110156106c25782818151811061067957634e487b7160e01b600052603260045260246000fd5b6020026020010151602001518282815181106106a557634e487b7160e01b600052603260045260246000fd5b6020908102919091010152806106ba81612e34565b915050610650565b509392505050565b6001600160a01b0387166107465760405162461bcd60e51b815260206004820152602560248201527f64657374696e6174696f6e2061646472657373206d757374206265206e6f6e2d60448201527f7a65726f2e0000000000000000000000000000000000000000000000000000006064820152608401610558565b8483146107bb5760405162461bcd60e51b815260206004820152602960248201527f5f69647320616e64205f76616c756573206172726179206c656e676874206d7560448201527f7374206d617463682e00000000000000000000000000000000000000000000006064820152608401610558565b6001600160a01b0388163314806107fa57506001600160a01b038816600090815260076020908152604080832033845290915290205460ff1615156001145b61086c5760405162461bcd60e51b815260206004820152602f60248201527f4e656564206f70657261746f7220617070726f76616c20666f7220337264207060448201527f61727479207472616e73666572732e00000000000000000000000000000000006064820152608401610558565b60005b858110156109d157600087878381811061089957634e487b7160e01b600052603260045260246000fd5b90506020020135905060008686848181106108c457634e487b7160e01b600052603260045260246000fd5b905060200201359050610916816006600085815260200190815260200160002060008e6001600160a01b03166001600160a01b031681526020019081526020016000205461189190919063ffffffff16565b6006600084815260200190815260200160002060008d6001600160a01b03166001600160a01b03168152602001908152602001600020819055506109996006600084815260200190815260200160002060008c6001600160a01b03166001600160a01b0316815260200190815260200160002054826118f490919063ffffffff16565b60009283526006602090815260408085206001600160a01b038e16865290915290922091909155506109ca81612e34565b905061086f565b50866001600160a01b0316886001600160a01b0316336001600160a01b03167f4a39dc06d4c0dbc64b70af90fd698a233a518aa5d07e595d983b8c0526c8f7fb89898989604051610a259493929190612cc6565b60405180910390a46001600160a01b0387163b15610ae157610ae133898989898080602002602001604051908101604052809392919081815260200183836020028082843760009201919091525050604080516020808d0282810182019093528c82529093508c92508b91829185019084908082843760009201919091525050604080516020601f8c018190048102820181019092528a815292508a915089908190840183828082843760009201919091525061195392505050565b5050505050505050565b6060838214610af957600080fd5b60008467ffffffffffffffff811115610b2257634e487b7160e01b600052604160045260246000fd5b604051908082528060200260200182016040528015610b4b578160200160208202803683370190505b50905060005b85811015610c255760066000868684818110610b7d57634e487b7160e01b600052603260045260246000fd5b9050602002013581526020019081526020016000206000888884818110610bb457634e487b7160e01b600052603260045260246000fd5b9050602002016020810190610bc99190612691565b6001600160a01b03166001600160a01b0316815260200190815260200160002054828281518110610c0a57634e487b7160e01b600052603260045260246000fd5b6020908102919091010152610c1e81612e34565b9050610b51565b5095945050505050565b60096020528160005260406000208181548110610c4b57600080fd5b6000918252602090912060029091020180546001909101546001600160a01b039091169250905082565b6001546001600160a01b03163314610ccf5760405162461bcd60e51b815260206004820181905260248201527f4f776e61626c653a2063616c6c6572206973206e6f7420746865206f776e65726044820152606401610558565b6001546040516000916001600160a01b0316907f8be0079c531659141344cd1fd0a4f28419497f9722a3daafe3b4186f6b6457e0908390a36001805473ffffffffffffffffffffffffffffffffffffffff19169055565b6000610578600283611a71565b6001546001600160a01b03163314610d8d5760405162461bcd60e51b815260206004820181905260248201527f4f776e61626c653a2063616c6c6572206973206e6f7420746865206f776e65726044820152606401610558565b61056a81611b0f565b600b805461048190612df9565b6001546001600160a01b03163314610dfd5760405162461bcd60e51b815260206004820181905260248201527f4f776e61626c653a2063616c6c6572206973206e6f7420746865206f776e65726044820152606401610558565b61056a81611b26565b3360008181526007602090815260408083206001600160a01b03871680855290835292819020805460ff191686151590811790915590519081529192917f17307eab39ab6107e8899845ad3d59bd9653f200f220920489ca2b5937696c31910160405180910390a35050565b6000818152600960209081526040808320805482518185028101850190935280835260609493849084015b82821015610ee5576000848152602090819020604080518082019091526002850290910180546001600160a01b03168252600190810154828401529083529092019101610e9d565b5050505090506000815167ffffffffffffffff811115610f1557634e487b7160e01b600052604160045260246000fd5b604051908082528060200260200182016040528015610f3e578160200160208202803683370190505b50905060005b82518110156106c257828181518110610f6d57634e487b7160e01b600052603260045260246000fd5b602002602001015160000151828281518110610f9957634e487b7160e01b600052603260045260246000fd5b6001600160a01b039092166020928302919091019091015280610fbb81612e34565b915050610f44565b6003805461048190612df9565b6001546001600160a01b0316331461102a5760405162461bcd60e51b815260206004820181905260248201527f4f776e61626c653a2063616c6c6572206973206e6f7420746865206f776e65726044820152606401610558565b6040516bffffffffffffffffffffffff193060601b1660208201526034810188905261110c9060019060540160408051601f198184030181529082905280516020918201207f19457468657265756d205369676e6564204d6573736167653a0a33320000000091830191909152603c820152605c0160408051601f198184030181528282528051602091820120600084529083018083525260ff8a1690820152606081018890526080810187905260a0016020604051602081039080840390855afa1580156110fd573d6000803e3d6000fd5b50505060206040510351610d26565b6111585760405162461bcd60e51b815260206004820152601a60248201527f7369676e65722073686f756c64207369676e20746f6b656e49640000000000006044820152606401610558565b6111653388858585611b39565b50505050505050565b61117733611718565b565b6005805461048190612df9565b6001546001600160a01b031633146111e05760405162461bcd60e51b815260206004820181905260248201527f4f776e61626c653a2063616c6c6572206973206e6f7420746865206f776e65726044820152606401610558565b61056a81612081565b6001600160a01b03851661123f5760405162461bcd60e51b815260206004820152601560248201527f5f746f206d757374206265206e6f6e2d7a65726f2e00000000000000000000006044820152606401610558565b6001600160a01b03861633148061127e57506001600160a01b038616600090815260076020908152604080832033845290915290205460ff1615156001145b6112f05760405162461bcd60e51b815260206004820152602f60248201527f4e656564206f70657261746f7220617070726f76616c20666f7220337264207060448201527f61727479207472616e73666572732e00000000000000000000000000000000006064820152608401610558565b60008481526006602090815260408083206001600160a01b038a16845290915290205461131d9084611891565b60008581526006602090815260408083206001600160a01b038b811685529252808320939093558716815220546113559084906118f4565b60008581526006602090815260408083206001600160a01b038a8116808652918452938290209490945580518881529182018790529189169133917fc3d58168c5ae7397731d063d5bbf3d657854427343f4c083240f7aacaa2d0f62910160405180910390a46001600160a01b0385163b1561140f5761140f338787878787878080601f0160208091040260200160405190810160405280939291908181526020018383808284376000920191909152506120c392505050565b505050505050565b6001546001600160a01b031633146114715760405162461bcd60e51b815260206004820181905260248201527f4f776e61626c653a2063616c6c6572206973206e6f7420746865206f776e65726044820152606401610558565b6001600160a01b0381166114ed5760405162461bcd60e51b815260206004820152602660248201527f4f776e61626c653a206e6577206f776e657220697320746865207a65726f206160448201527f64647265737300000000000000000000000000000000000000000000000000006064820152608401610558565b6001546040516001600160a01b038084169216907f8be0079c531659141344cd1fd0a4f28419497f9722a3daafe3b4186f6b6457e090600090a36001805473ffffffffffffffffffffffffffffffffffffffff19166001600160a01b0392909216919091179055565b6001600160a01b03831633148061159557506001600160a01b038316600090815260076020908152604080832033845290915290205460ff1615156001145b6116075760405162461bcd60e51b815260206004820152602b60248201527f4e656564206f70657261746f7220617070726f76616c20666f7220337264207060448201527f61727479206275726e732e0000000000000000000000000000000000000000006064820152608401610558565b60008281526006602090815260408083206001600160a01b03871684529091529020546116349082611891565b60008381526006602090815260408083206001600160a01b03881680855290835281842094909455805186815291820185905291929133917fc3d58168c5ae7397731d063d5bbf3d657854427343f4c083240f7aacaa2d0f62910160405180910390a4505050565b6116a68282611a71565b156116f35760405162461bcd60e51b815260206004820152601f60248201527f526f6c65733a206163636f756e7420616c72656164792068617320726f6c65006044820152606401610558565b6001600160a01b0316600090815260209190915260409020805460ff19166001179055565b6117236002826121e1565b6040516001600160a01b038216907f3525e22824a8a7df2c9a6029941c824cf95b6447f1e13d5128fd3826d35afe8b90600090a250565b600081815260046020526040902080546060916105789161177a90612df9565b80601f01602080910402602001604051908101604052809291908181526020018280546117a690612df9565b80156117f35780601f106117c8576101008083540402835291602001916117f3565b820191906000526020600020905b8154815290600101906020018083116117d657829003601f168201915b50505050506003805461180590612df9565b80601f016020809104026020016040519081016040528092919081815260200182805461183190612df9565b801561187e5780601f106118535761010080835404028352916020019161187e565b820191906000526020600020905b81548152906001019060200180831161186157829003601f168201915b505050505061227f90919063ffffffff16565b6000828211156118e35760405162461bcd60e51b815260206004820152601e60248201527f536166654d6174683a207375627472616374696f6e206f766572666c6f7700006044820152606401610558565b6118ed8284612de2565b9392505050565b6000806119018385612dca565b9050838110156118ed5760405162461bcd60e51b815260206004820152601b60248201527f536166654d6174683a206164646974696f6e206f766572666c6f7700000000006044820152606401610558565b6040517fbc197c8100000000000000000000000000000000000000000000000000000000808252906001600160a01b0386169063bc197c81906119a2908a908a90899089908990600401612be4565b602060405180830381600087803b1580156119bc57600080fd5b505af11580156119d0573d6000803e3d6000fd5b505050506040513d601f19601f820116820180604052508101906119f4919061292f565b6001600160e01b0319161461140f5760405162461bcd60e51b815260206004820152603e60248201527f636f6e74726163742072657475726e656420616e20756e6b6e6f776e2076616c60448201527f75652066726f6d206f6e455243313135354261746368526563656976656400006064820152608401610558565b60006001600160a01b038216611aef5760405162461bcd60e51b815260206004820152602260248201527f526f6c65733a206163636f756e7420697320746865207a65726f20616464726560448201527f73730000000000000000000000000000000000000000000000000000000000006064820152608401610558565b506001600160a01b03166000908152602091909152604090205460ff1690565b8051611b22906005906020840190612503565b5050565b8051611b22906003906020840190612503565b6000848152600860205260409020546001600160a01b031615611b9e5760405162461bcd60e51b815260206004820152601760248201527f546f6b656e20697320616c7265616479206d696e7465640000000000000000006044820152606401610558565b81611beb5760405162461bcd60e51b815260206004820152601360248201527f537570706c792020626520706f736974697665000000000000000000000000006044820152606401610558565b6000815111611c3c5760405162461bcd60e51b815260206004820152600b60248201527f75726920206265207365740000000000000000000000000000000000000000006044820152606401610558565b6000848152600860205260408120805473ffffffffffffffffffffffffffffffffffffffff19166001600160a01b038816179055835167ffffffffffffffff811115611c9857634e487b7160e01b600052604160045260246000fd5b604051908082528060200260200182016040528015611cc1578160200160208202803683370190505b5090506000845167ffffffffffffffff811115611cee57634e487b7160e01b600052604160045260246000fd5b604051908082528060200260200182016040528015611d17578160200160208202803683370190505b50905060005b8551811015611f8d5760006001600160a01b0316868281518110611d5157634e487b7160e01b600052603260045260246000fd5b6020026020010151600001516001600160a01b03161415611db45760405162461bcd60e51b815260206004820152601560248201527f526563697069656e74202062652070726573656e7400000000000000000000006044820152606401610558565b858181518110611dd457634e487b7160e01b600052603260045260246000fd5b60200260200101516020015160001415611e305760405162461bcd60e51b815260206004820152601660248201527f4665652076616c75652020626520706f736974697665000000000000000000006044820152606401610558565b60008781526009602052604090208651879083908110611e6057634e487b7160e01b600052603260045260246000fd5b6020908102919091018101518254600180820185556000948552938390208251600290920201805473ffffffffffffffffffffffffffffffffffffffff19166001600160a01b039092169190911781559101519101558551869082908110611ed857634e487b7160e01b600052603260045260246000fd5b602002602001015160000151838281518110611f0457634e487b7160e01b600052603260045260246000fd5b60200260200101906001600160a01b031690816001600160a01b031681525050858181518110611f4457634e487b7160e01b600052603260045260246000fd5b602002602001015160200151828281518110611f7057634e487b7160e01b600052603260045260246000fd5b602090810291909101015280611f8581612e34565b915050611d1d565b50845115611fd1577f99aba1d63749cfd5ad1afda7c4663840924d54eb5f005bbbeadedc6ec13674b2868383604051611fc893929190612d13565b60405180910390a15b60008681526006602090815260408083206001600160a01b038b16845290915290208490556120008684612476565b6040805187815260208101869052339160009183917fc3d58168c5ae7397731d063d5bbf3d657854427343f4c083240f7aacaa2d0f62910160405180910390a4857f6bb7ff708619ba0610cba295a58592e0451dee2622938c8755667688daf3529b846040516120709190612d00565b60405180910390a250505050505050565b61208c60028261169c565b6040516001600160a01b038216907f47d1c22a25bb3a5d4e481b9b1e6944c2eade3181a0a20b495ed61d35b5323f2490600090a250565b6040517ff23a6e6100000000000000000000000000000000000000000000000000000000808252906001600160a01b0386169063f23a6e6190612112908a908a90899089908990600401612c42565b602060405180830381600087803b15801561212c57600080fd5b505af1158015612140573d6000803e3d6000fd5b505050506040513d601f19601f82011682018060405250810190612164919061292f565b6001600160e01b0319161461140f5760405162461bcd60e51b815260206004820152603960248201527f636f6e74726163742072657475726e656420616e20756e6b6e6f776e2076616c60448201527f75652066726f6d206f6e455243313135355265636569766564000000000000006064820152608401610558565b6121eb8282611a71565b61225d5760405162461bcd60e51b815260206004820152602160248201527f526f6c65733a206163636f756e7420646f6573206e6f74206861766520726f6c60448201527f65000000000000000000000000000000000000000000000000000000000000006064820152608401610558565b6001600160a01b0316600090815260209190915260409020805460ff19169055565b80518251606091849184916000916122979190612dca565b67ffffffffffffffff8111156122bd57634e487b7160e01b600052604160045260246000fd5b6040519080825280601f01601f1916602001820160405280156122e7576020820181803683370190505b5090506000805b84518110156123aa5784818151811061231757634e487b7160e01b600052603260045260246000fd5b01602001517fff0000000000000000000000000000000000000000000000000000000000000016838361234981612e34565b94508151811061236957634e487b7160e01b600052603260045260246000fd5b60200101907effffffffffffffffffffffffffffffffffffffffffffffffffffffffffffff1916908160001a905350806123a281612e34565b9150506122ee565b5060005b835181101561246a578381815181106123d757634e487b7160e01b600052603260045260246000fd5b01602001517fff0000000000000000000000000000000000000000000000000000000000000016838361240981612e34565b94508151811061242957634e487b7160e01b600052603260045260246000fd5b60200101907effffffffffffffffffffffffffffffffffffffffffffffffffffffffffffff1916908160001a9053508061246281612e34565b9150506123ae565b50909695505050505050565b6000828152600860205260409020546001600160a01b03166124da5760405162461bcd60e51b815260206004820152601a60248201527f5f736574546f6b656e5552493a20546f6b656e202065786973740000000000006044820152606401610558565b611b228282600082815260046020908152604090912082516124fe92840190612503565b505050565b82805461250f90612df9565b90600052602060002090601f0160209004810192826125315760008555612577565b82601f1061254a57805160ff1916838001178555612577565b82800160010185558215612577579182015b8281111561257757825182559160200191906001019061255c565b50612583929150612587565b5090565b5b808211156125835760008155600101612588565b60008083601f8401126125ad578182fd5b50813567ffffffffffffffff8111156125c4578182fd5b6020830191508360208260051b85010111156125df57600080fd5b9250929050565b60008083601f8401126125f7578182fd5b50813567ffffffffffffffff81111561260e578182fd5b6020830191508360208285010111156125df57600080fd5b600082601f830112612636578081fd5b813567ffffffffffffffff81111561265057612650612e65565b612663601f8201601f1916602001612d99565b818152846020838601011115612677578283fd5b816020850160208301379081016020019190915292915050565b6000602082840312156126a2578081fd5b81356118ed81612e7b565b600080604083850312156126bf578081fd5b82356126ca81612e7b565b915060208301356126da81612e7b565b809150509250929050565b60008060008060008060008060a0898b031215612700578384fd5b883561270b81612e7b565b9750602089013561271b81612e7b565b9650604089013567ffffffffffffffff80821115612737578586fd5b6127438c838d0161259c565b909850965060608b013591508082111561275b578586fd5b6127678c838d0161259c565b909650945060808b013591508082111561277f578384fd5b5061278c8b828c016125e6565b999c989b5096995094979396929594505050565b60008060008060008060a087890312156127b8578182fd5b86356127c381612e7b565b955060208701356127d381612e7b565b94506040870135935060608701359250608087013567ffffffffffffffff8111156127fc578283fd5b61280889828a016125e6565b979a9699509497509295939492505050565b6000806040838503121561282c578182fd5b823561283781612e7b565b9150602083013580151581146126da578182fd5b6000806040838503121561285d578182fd5b823561286881612e7b565b946020939093013593505050565b60008060006060848603121561288a578283fd5b833561289581612e7b565b95602085013595506040909401359392505050565b600080600080604085870312156128bf578182fd5b843567ffffffffffffffff808211156128d6578384fd5b6128e28883890161259c565b909650945060208701359150808211156128fa578384fd5b506129078782880161259c565b95989497509550505050565b600060208284031215612924578081fd5b81356118ed81612e90565b600060208284031215612940578081fd5b81516118ed81612e90565b60006020828403121561295c578081fd5b813567ffffffffffffffff811115612972578182fd5b61297e84828501612626565b949350505050565b600060208284031215612997578081fd5b5035919050565b600080604083850312156129b0578182fd5b50508035926020909101359150565b600080600080600080600060e0888a0312156129d9578081fd5b87359650602088013560ff8116146129ef578081fd5b60208801359550604088013594506060880135935067ffffffffffffffff60808901351115612a1c578081fd5b6080880135880189601f820112612a31578182fd5b67ffffffffffffffff81351115612a4a57612a4a612e65565b612a5a6020823560051b01612d99565b8082358252602082019150602083018c6020853560061b8601011115612a7e578485fd5b845b8435811015612ace576040828f031215612a98578586fd5b612aa0612d70565b612aaa8335612e7b565b82358152602080840135818301529085529390930192604090910190600101612a80565b5090955050505060a0880135915067ffffffffffffffff60c08901351115612af4578081fd5b612b048960c08a01358a01612626565b905092959891949750929550565b81835260007f07ffffffffffffffffffffffffffffffffffffffffffffffffffffffffffffff831115612b43578081fd5b8260051b80836020870137939093016020019283525090919050565b6000815180845260208085019450808401835b83811015612b8e57815187529582019590820190600101612b72565b509495945050505050565b60008151808452815b81811015612bbe57602081850181015186830182015201612ba2565b81811115612bcf5782602083870101525b50601f01601f19169290920160200192915050565b60006001600160a01b03808816835280871660208401525060a06040830152612c1060a0830186612b5f565b8281036060840152612c228186612b5f565b90508281036080840152612c368185612b99565b98975050505050505050565b60006001600160a01b03808816835280871660208401525084604083015283606083015260a06080830152612c7a60a0830184612b99565b979650505050505050565b6020808252825182820181905260009190848201906040850190845b8181101561246a5783516001600160a01b031683529284019291840191600101612ca1565b604081526000612cda604083018688612b12565b8281036020840152612c7a818587612b12565b6020815260006118ed6020830184612b5f565b6020815260006118ed6020830184612b99565b60006060820185835260206060818501528186518084526080860191508288019350845b81811015612d5c5784516001600160a01b031683529383019391830191600101612d37565b50508481036040860152612c368187612b5f565b6040805190810167ffffffffffffffff81118282101715612d9357612d93612e65565b60405290565b604051601f8201601f1916810167ffffffffffffffff81118282101715612dc257612dc2612e65565b604052919050565b60008219821115612ddd57612ddd612e4f565b500190565b600082821015612df457612df4612e4f565b500390565b600181811c90821680612e0d57607f821691505b60208210811415612e2e57634e487b7160e01b600052602260045260246000fd5b50919050565b6000600019821415612e4857612e48612e4f565b5060010190565b634e487b7160e01b600052601160045260246000fd5b634e487b7160e01b600052604160045260246000fd5b6001600160a01b038116811461056a57600080fd5b6001600160e01b03198116811461056a57600080fdfea26469706673582212205b34d8d8b85265c57316cee3d9177cf883482b8471d42c107ec371518bb7055864736f6c63430008040033",
  "immutableReferences": {},
  "source": "// SPDX-License-Identifier: MIT\npragma solidity >=0.4.22 <0.9.0;\npragma experimental ABIEncoderV2;\n\nimport \"../lib/utils/Ownable.sol\";\nimport \"../lib/utils/SignerRole.sol\";\nimport \"../lib/contracts/ERC1155Base.sol\";\n\n\ncontract CustomNFT1155 is Ownable, SignerRole, ERC1155Base {\n\n    string public name;\n    string public symbol;\n\n    event CreateERC1155(address indexed creator, string name, string symbol);\n\n    constructor(string memory _name, string memory _symbol, address signer, string memory contractURI, string memory tokenURIPrefix) ERC1155Base(contractURI, tokenURIPrefix) {\n        name = _name;\n        symbol = _symbol;\n\n        _addSigner(signer);\n        _registerInterface(bytes4(keccak256('MINT_WITH_ADDRESS')));\n        emit CreateERC1155(msg.sender, name, symbol);\n    }\n\n    function addSigner(address account) public override onlyOwner {\n        _addSigner(account);\n    }\n\n    function removeSigner(address account) public onlyOwner {\n        _removeSigner(account);\n    }\n\n\n    function mint(uint256 id, uint8 v, bytes32 r, bytes32 s, Fee[] memory fees, uint256 supply, string memory uri) onlyOwner public {\n        require(isSigner(ecrecover(keccak256(abi.encodePacked(\"\\x19Ethereum Signed Message:\\n32\", keccak256(abi.encodePacked(this, id)))), v, r, s)), \"signer should sign tokenId\");\n        _mint(msg.sender, id, fees, supply, uri);\n    }\n}\n\n",
  "sourcePath": "/Users/linyouxiang/waibao-env/gitlabs/move-contracts/contracts/token/CustomNFT1155.sol",
  "compiler": {
    "name": "solc",
    "version": "0.8.4+commit.c7e474f2.Emscripten.clang"
  },
  "schemaVersion": "3.3.3",
  "updatedAt": "2021-11-09T02:33:10.277Z",
  "devdoc": {
    "kind": "dev",
    "methods": {
      "balanceOf(address,uint256)": {
        "params": {
          "_id": "ID of the Token",
          "_owner": "The address of the token holder"
        },
        "returns": {
          "_0": "The _owner's balance of the Token type requested"
        }
      },
      "balanceOfBatch(address[],uint256[])": {
        "params": {
          "_ids": "ID of the Tokens",
          "_owners": "The addresses of the token holders"
        },
        "returns": {
          "_0": "The _owner's balance of the Token types requested (i.e. balance for each (owner, id) pair)"
        }
      },
      "isApprovedForAll(address,address)": {
        "params": {
          "_operator": "Address of authorized operator",
          "_owner": "The owner of the Tokens"
        },
        "returns": {
          "_0": "True if the operator is approved, false if not"
        }
      },
      "owner()": {
        "details": "Returns the address of the current owner."
      },
      "renounceOwnership()": {
        "details": "Leaves the contract without owner. It will not be possible to call `onlyOwner` functions anymore. Can only be called by the current owner. NOTE: Renouncing ownership will leave the contract without an owner, thereby removing any functionality that is only available to the owner."
      },
      "safeBatchTransferFrom(address,address,uint256[],uint256[],bytes)": {
        "details": "Caller must be approved to manage the tokens being transferred out of the `_from` account (see \"Approval\" section of the standard). MUST revert if `_to` is the zero address. MUST revert if length of `_ids` is not the same as length of `_values`. MUST revert if any of the balance(s) of the holder(s) for token(s) in `_ids` is lower than the respective amount(s) in `_values` sent to the recipient. MUST revert on any other error. MUST emit `TransferSingle` or `TransferBatch` event(s) such that all the balance changes are reflected (see \"Safe Transfer Rules\" section of the standard). Balance changes and events MUST follow the ordering of the arrays (_ids[0]/_values[0] before _ids[1]/_values[1], etc). After the above conditions for the transfer(s) in the batch are met, this function MUST check if `_to` is a smart contract (e.g. code size > 0). If so, it MUST call the relevant `ERC1155TokenReceiver` hook(s) on `_to` and act appropriately (see \"Safe Transfer Rules\" section of the standard).",
        "params": {
          "_data": "Additional data with no specified format, MUST be sent unaltered in call to the `ERC1155TokenReceiver` hook(s) on `_to`",
          "_from": "Source address",
          "_ids": "IDs of each token type (order and length must match _values array)",
          "_to": "Target address",
          "_values": "Transfer amounts per token type (order and length must match _ids array)"
        }
      },
      "safeTransferFrom(address,address,uint256,uint256,bytes)": {
        "details": "Caller must be approved to manage the tokens being transferred out of the `_from` account (see \"Approval\" section of the standard). MUST revert if `_to` is the zero address. MUST revert if balance of holder for token `_id` is lower than the `_value` sent. MUST revert on any other error. MUST emit the `TransferSingle` event to reflect the balance change (see \"Safe Transfer Rules\" section of the standard). After the above conditions are met, this function MUST check if `_to` is a smart contract (e.g. code size > 0). If so, it MUST call `onERC1155Received` on `_to` and act appropriately (see \"Safe Transfer Rules\" section of the standard).",
        "params": {
          "_data": "Additional data with no specified format, MUST be sent unaltered in call to `onERC1155Received` on `_to`",
          "_from": "Source address",
          "_id": "ID of the token type",
          "_to": "Target address",
          "_value": "Transfer amount"
        }
      },
      "setApprovalForAll(address,bool)": {
        "details": "MUST emit the ApprovalForAll event on success.",
        "params": {
          "_approved": "True if the operator is approved, false to revoke approval",
          "_operator": "Address to add to the set of authorized operators"
        }
      },
      "supportsInterface(bytes4)": {
        "details": "See {IERC165-supportsInterface}. Time complexity O(1), guaranteed to always use less than 30 000 gas."
      },
      "transferOwnership(address)": {
        "details": "Transfers ownership of the contract to a new account (`newOwner`). Can only be called by the current owner."
      },
      "uri(uint256)": {
        "details": "URIs are defined in RFC 3986. The URI may point to a JSON file that conforms to the \"ERC-1155 Metadata URI JSON Schema\".",
        "returns": {
          "_0": "URI string"
        }
      }
    },
    "version": 1
  },
  "userdoc": {
    "kind": "user",
    "methods": {
      "balanceOf(address,uint256)": {
        "notice": "Get the balance of an account's Tokens."
      },
      "balanceOfBatch(address[],uint256[])": {
        "notice": "Get the balance of multiple account/token pairs"
      },
      "isApprovedForAll(address,address)": {
        "notice": "Queries the approval status of an operator for a given owner."
      },
      "safeBatchTransferFrom(address,address,uint256[],uint256[],bytes)": {
        "notice": "Transfers `_values` amount(s) of `_ids` from the `_from` address to the `_to` address specified (with safety call)."
      },
      "safeTransferFrom(address,address,uint256,uint256,bytes)": {
        "notice": "Transfers `_value` amount of an `_id` from the `_from` address to the `_to` address specified (with safety call)."
      },
      "setApprovalForAll(address,bool)": {
        "notice": "Enable or disable approval for a third party (\"operator\") to manage all of the caller's tokens."
      },
      "uri(uint256)": {
        "notice": "A distinct Uniform Resource Identifier (URI) for a given token."
      }
    },
    "version": 1
  }
}