{
  "contractName": "CustomNFT721",
  "abi": [
    {
      "inputs": [
        {
          "internalType": "string",
          "name": "name",
          "type": "string"
        },
        {
          "internalType": "string",
          "name": "symbol",
          "type": "string"
        },
        {
          "internalType": "address",
          "name": "signer",
          "type": "address"
        },
        {
          "internalType": "string",
          "name": "contractURI",
          "type": "string"
        },
        {
          "internalType": "string",
          "name": "tokenURIPrefix",
          "type": "string"
        }
      ],
      "stateMutability": "nonpayable",
      "type": "constructor"
    },
    {
      "anonymous": false,
      "inputs": [
        {
          "indexed": true,
          "internalType": "address",
          "name": "owner",
          "type": "address"
        },
        {
          "indexed": true,
          "internalType": "address",
          "name": "approved",
          "type": "address"
        },
        {
          "indexed": true,
          "internalType": "uint256",
          "name": "tokenId",
          "type": "uint256"
        }
      ],
      "name": "Approval",
      "type": "event"
    },
    {
      "anonymous": false,
      "inputs": [
        {
          "indexed": true,
          "internalType": "address",
          "name": "owner",
          "type": "address"
        },
        {
          "indexed": true,
          "internalType": "address",
          "name": "operator",
          "type": "address"
        },
        {
          "indexed": false,
          "internalType": "bool",
          "name": "approved",
          "type": "bool"
        }
      ],
      "name": "ApprovalForAll",
      "type": "event"
    },
    {
      "anonymous": false,
      "inputs": [
        {
          "indexed": true,
          "internalType": "address",
          "name": "creator",
          "type": "address"
        },
        {
          "indexed": false,
          "internalType": "string",
          "name": "name",
          "type": "string"
        },
        {
          "indexed": false,
          "internalType": "string",
          "name": "symbol",
          "type": "string"
        }
      ],
      "name": "CreateERC721",
      "type": "event"
    },
    {
      "anonymous": false,
      "inputs": [
        {
          "indexed": true,
          "internalType": "address",
          "name": "previousOwner",
          "type": "address"
        },
        {
          "indexed": true,
          "internalType": "address",
          "name": "newOwner",
          "type": "address"
        }
      ],
      "name": "OwnershipTransferred",
      "type": "event"
    },
    {
      "anonymous": false,
      "inputs": [
        {
          "indexed": false,
          "internalType": "uint256",
          "name": "tokenId",
          "type": "uint256"
        },
        {
          "indexed": false,
          "internalType": "address[]",
          "name": "recipients",
          "type": "address[]"
        },
        {
          "indexed": false,
          "internalType": "uint256[]",
          "name": "bps",
          "type": "uint256[]"
        }
      ],
      "name": "SecondarySaleFees",
      "type": "event"
    },
    {
      "anonymous": false,
      "inputs": [
        {
          "indexed": true,
          "internalType": "address",
          "name": "account",
          "type": "address"
        }
      ],
      "name": "SignerAdded",
      "type": "event"
    },
    {
      "anonymous": false,
      "inputs": [
        {
          "indexed": true,
          "internalType": "address",
          "name": "account",
          "type": "address"
        }
      ],
      "name": "SignerRemoved",
      "type": "event"
    },
    {
      "anonymous": false,
      "inputs": [
        {
          "indexed": true,
          "internalType": "address",
          "name": "from",
          "type": "address"
        },
        {
          "indexed": true,
          "internalType": "address",
          "name": "to",
          "type": "address"
        },
        {
          "indexed": true,
          "internalType": "uint256",
          "name": "tokenId",
          "type": "uint256"
        }
      ],
      "name": "Transfer",
      "type": "event"
    },
    {
      "inputs": [
        {
          "internalType": "address",
          "name": "to",
          "type": "address"
        },
        {
          "internalType": "uint256",
          "name": "tokenId",
          "type": "uint256"
        }
      ],
      "name": "approve",
      "outputs": [],
      "stateMutability": "nonpayable",
      "type": "function"
    },
    {
      "inputs": [
        {
          "internalType": "address",
          "name": "owner",
          "type": "address"
        }
      ],
      "name": "balanceOf",
      "outputs": [
        {
          "internalType": "uint256",
          "name": "",
          "type": "uint256"
        }
      ],
      "stateMutability": "view",
      "type": "function"
    },
    {
      "inputs": [
        {
          "internalType": "uint256",
          "name": "tokenId",
          "type": "uint256"
        }
      ],
      "name": "burn",
      "outputs": [],
      "stateMutability": "nonpayable",
      "type": "function"
    },
    {
      "inputs": [],
      "name": "contractURI",
      "outputs": [
        {
          "internalType": "string",
          "name": "",
          "type": "string"
        }
      ],
      "stateMutability": "view",
      "type": "function"
    },
    {
      "inputs": [
        {
          "internalType": "uint256",
          "name": "",
          "type": "uint256"
        },
        {
          "internalType": "uint256",
          "name": "",
          "type": "uint256"
        }
      ],
      "name": "fees",
      "outputs": [
        {
          "internalType": "address payable",
          "name": "recipient",
          "type": "address"
        },
        {
          "internalType": "uint256",
          "name": "value",
          "type": "uint256"
        }
      ],
      "stateMutability": "view",
      "type": "function"
    },
    {
      "inputs": [
        {
          "internalType": "uint256",
          "name": "tokenId",
          "type": "uint256"
        }
      ],
      "name": "getApproved",
      "outputs": [
        {
          "internalType": "address",
          "name": "",
          "type": "address"
        }
      ],
      "stateMutability": "view",
      "type": "function"
    },
    {
      "inputs": [
        {
          "internalType": "uint256",
          "name": "id",
          "type": "uint256"
        }
      ],
      "name": "getFeeBps",
      "outputs": [
        {
          "internalType": "uint256[]",
          "name": "",
          "type": "uint256[]"
        }
      ],
      "stateMutability": "view",
      "type": "function"
    },
    {
      "inputs": [
        {
          "internalType": "uint256",
          "name": "id",
          "type": "uint256"
        }
      ],
      "name": "getFeeRecipients",
      "outputs": [
        {
          "internalType": "address payable[]",
          "name": "",
          "type": "address[]"
        }
      ],
      "stateMutability": "view",
      "type": "function"
    },
    {
      "inputs": [
        {
          "internalType": "address",
          "name": "owner",
          "type": "address"
        },
        {
          "internalType": "address",
          "name": "operator",
          "type": "address"
        }
      ],
      "name": "isApprovedForAll",
      "outputs": [
        {
          "internalType": "bool",
          "name": "",
          "type": "bool"
        }
      ],
      "stateMutability": "view",
      "type": "function"
    },
    {
      "inputs": [
        {
          "internalType": "address",
          "name": "account",
          "type": "address"
        }
      ],
      "name": "isSigner",
      "outputs": [
        {
          "internalType": "bool",
          "name": "",
          "type": "bool"
        }
      ],
      "stateMutability": "view",
      "type": "function"
    },
    {
      "inputs": [],
      "name": "name",
      "outputs": [
        {
          "internalType": "string",
          "name": "",
          "type": "string"
        }
      ],
      "stateMutability": "view",
      "type": "function"
    },
    {
      "inputs": [],
      "name": "owner",
      "outputs": [
        {
          "internalType": "address",
          "name": "",
          "type": "address"
        }
      ],
      "stateMutability": "view",
      "type": "function"
    },
    {
      "inputs": [
        {
          "internalType": "uint256",
          "name": "tokenId",
          "type": "uint256"
        }
      ],
      "name": "ownerOf",
      "outputs": [
        {
          "internalType": "address",
          "name": "",
          "type": "address"
        }
      ],
      "stateMutability": "view",
      "type": "function"
    },
    {
      "inputs": [],
      "name": "renounceOwnership",
      "outputs": [],
      "stateMutability": "nonpayable",
      "type": "function"
    },
    {
      "inputs": [],
      "name": "renounceSigner",
      "outputs": [],
      "stateMutability": "nonpayable",
      "type": "function"
    },
    {
      "inputs": [
        {
          "internalType": "address",
          "name": "from",
          "type": "address"
        },
        {
          "internalType": "address",
          "name": "to",
          "type": "address"
        },
        {
          "internalType": "uint256",
          "name": "tokenId",
          "type": "uint256"
        }
      ],
      "name": "safeTransferFrom",
      "outputs": [],
      "stateMutability": "nonpayable",
      "type": "function"
    },
    {
      "inputs": [
        {
          "internalType": "address",
          "name": "from",
          "type": "address"
        },
        {
          "internalType": "address",
          "name": "to",
          "type": "address"
        },
        {
          "internalType": "uint256",
          "name": "tokenId",
          "type": "uint256"
        },
        {
          "internalType": "bytes",
          "name": "_data",
          "type": "bytes"
        }
      ],
      "name": "safeTransferFrom",
      "outputs": [],
      "stateMutability": "nonpayable",
      "type": "function"
    },
    {
      "inputs": [
        {
          "internalType": "address",
          "name": "to",
          "type": "address"
        },
        {
          "internalType": "bool",
          "name": "approved",
          "type": "bool"
        }
      ],
      "name": "setApprovalForAll",
      "outputs": [],
      "stateMutability": "nonpayable",
      "type": "function"
    },
    {
      "inputs": [
        {
          "internalType": "bytes4",
          "name": "interfaceId",
          "type": "bytes4"
        }
      ],
      "name": "supportsInterface",
      "outputs": [
        {
          "internalType": "bool",
          "name": "",
          "type": "bool"
        }
      ],
      "stateMutability": "view",
      "type": "function"
    },
    {
      "inputs": [],
      "name": "symbol",
      "outputs": [
        {
          "internalType": "string",
          "name": "",
          "type": "string"
        }
      ],
      "stateMutability": "view",
      "type": "function"
    },
    {
      "inputs": [
        {
          "internalType": "uint256",
          "name": "index",
          "type": "uint256"
        }
      ],
      "name": "tokenByIndex",
      "outputs": [
        {
          "internalType": "uint256",
          "name": "",
          "type": "uint256"
        }
      ],
      "stateMutability": "view",
      "type": "function"
    },
    {
      "inputs": [
        {
          "internalType": "address",
          "name": "owner",
          "type": "address"
        },
        {
          "internalType": "uint256",
          "name": "index",
          "type": "uint256"
        }
      ],
      "name": "tokenOfOwnerByIndex",
      "outputs": [
        {
          "internalType": "uint256",
          "name": "",
          "type": "uint256"
        }
      ],
      "stateMutability": "view",
      "type": "function"
    },
    {
      "inputs": [
        {
          "internalType": "uint256",
          "name": "tokenId",
          "type": "uint256"
        }
      ],
      "name": "tokenURI",
      "outputs": [
        {
          "internalType": "string",
          "name": "",
          "type": "string"
        }
      ],
      "stateMutability": "view",
      "type": "function"
    },
    {
      "inputs": [],
      "name": "tokenURIPrefix",
      "outputs": [
        {
          "internalType": "string",
          "name": "",
          "type": "string"
        }
      ],
      "stateMutability": "view",
      "type": "function"
    },
    {
      "inputs": [],
      "name": "totalSupply",
      "outputs": [
        {
          "internalType": "uint256",
          "name": "",
          "type": "uint256"
        }
      ],
      "stateMutability": "view",
      "type": "function"
    },
    {
      "inputs": [
        {
          "internalType": "address",
          "name": "from",
          "type": "address"
        },
        {
          "internalType": "address",
          "name": "to",
          "type": "address"
        },
        {
          "internalType": "uint256",
          "name": "tokenId",
          "type": "uint256"
        }
      ],
      "name": "transferFrom",
      "outputs": [],
      "stateMutability": "nonpayable",
      "type": "function"
    },
    {
      "inputs": [
        {
          "internalType": "address",
          "name": "newOwner",
          "type": "address"
        }
      ],
      "name": "transferOwnership",
      "outputs": [],
      "stateMutability": "nonpayable",
      "type": "function"
    },
    {
      "inputs": [
        {
          "internalType": "address",
          "name": "account",
          "type": "address"
        }
      ],
      "name": "addSigner",
      "outputs": [],
      "stateMutability": "nonpayable",
      "type": "function"
    },
    {
      "inputs": [
        {
          "internalType": "address",
          "name": "account",
          "type": "address"
        }
      ],
      "name": "removeSigner",
      "outputs": [],
      "stateMutability": "nonpayable",
      "type": "function"
    },
    {
      "inputs": [
        {
          "internalType": "uint256",
          "name": "tokenId",
          "type": "uint256"
        },
        {
          "internalType": "uint8",
          "name": "v",
          "type": "uint8"
        },
        {
          "internalType": "bytes32",
          "name": "r",
          "type": "bytes32"
        },
        {
          "internalType": "bytes32",
          "name": "s",
          "type": "bytes32"
        },
        {
          "components": [
            {
              "internalType": "address payable",
              "name": "recipient",
              "type": "address"
            },
            {
              "internalType": "uint256",
              "name": "value",
              "type": "uint256"
            }
          ],
          "internalType": "struct ERC721Base.Fee[]",
          "name": "_fees",
          "type": "tuple[]"
        },
        {
          "internalType": "string",
          "name": "tokenURI",
          "type": "string"
        }
      ],
      "name": "mint",
      "outputs": [],
      "stateMutability": "nonpayable",
      "type": "function"
    },
    {
      "inputs": [
        {
          "internalType": "string",
          "name": "tokenURIPrefix",
          "type": "string"
        }
      ],
      "name": "setTokenURIPrefix",
      "outputs": [],
      "stateMutability": "nonpayable",
      "type": "function"
    },
    {
      "inputs": [
        {
          "internalType": "string",
          "name": "contractURI",
          "type": "string"
        }
      ],
      "name": "setContractURI",
      "outputs": [],
      "stateMutability": "nonpayable",
      "type": "function"
    }
  ],
  "bytecode": "0x60806040523480156200001157600080fd5b50604051620038d7380380620038d783398101604081905262000034916200050c565b848483838082600033600080546001600160a01b0319166001600160a01b0383169081178255604051929350917f8be0079c531659141344cd1fd0a4f28419497f9722a3daafe3b4186f6b6457e0908290a3506200009233620001fb565b620000a46301ffc9a760e01b6200024d565b620000b6632dde656160e21b6200024d565b8051620000cb906003906020840190620003d7565b50620000de63e8a3d48560e01b6200024d565b508051620000f4906004906020840190620003d7565b506200010990506380ac58cd60e01b6200024d565b6200011b63780e9d6360e01b6200024d565b83516200013090600e906020870190620003d7565b5082516200014690600f906020860190620003d7565b5062000159635b5e139f60e01b6200024d565b6200016b630a85bd0160e11b6200024d565b50505050620001a07fe37243f27916e395706434720b54132b80ef5cc8c56f39b0df6485e8dfb697cf6200024d60201b60201c565b620001ab83620001fb565b336001600160a01b03167f67ca6f12a144afa9fd0057258684e6aea5d9dc4207a5e5714f519a5816f30b3f8686604051620001e89291906200060f565b60405180910390a25050505050620006c7565b62000216816001620002d260201b620015581790919060201c565b6040516001600160a01b038216907f47d1c22a25bb3a5d4e481b9b1e6944c2eade3181a0a20b495ed61d35b5323f2490600090a250565b6001600160e01b03198082161415620002ad5760405162461bcd60e51b815260206004820152601c60248201527f4552433136353a20696e76616c696420696e746572666163652069640000000060448201526064015b60405180910390fd5b6001600160e01b0319166000908152600260205260409020805460ff19166001179055565b620002de828262000352565b156200032d5760405162461bcd60e51b815260206004820152601f60248201527f526f6c65733a206163636f756e7420616c72656164792068617320726f6c65006044820152606401620002a4565b6001600160a01b0316600090815260209190915260409020805460ff19166001179055565b60006001600160a01b038216620003b75760405162461bcd60e51b815260206004820152602260248201527f526f6c65733a206163636f756e7420697320746865207a65726f206164647265604482015261737360f01b6064820152608401620002a4565b506001600160a01b03166000908152602091909152604090205460ff1690565b828054620003e59062000674565b90600052602060002090601f01602090048101928262000409576000855562000454565b82601f106200042457805160ff191683800117855562000454565b8280016001018555821562000454579182015b828111156200045457825182559160200191906001019062000437565b506200046292915062000466565b5090565b5b8082111562000462576000815560010162000467565b600082601f8301126200048e578081fd5b81516001600160401b0380821115620004ab57620004ab620006b1565b604051601f8301601f19908116603f01168101908282118183101715620004d657620004d6620006b1565b81604052838152866020858801011115620004ef578485fd5b6200050284602083016020890162000641565b9695505050505050565b600080600080600060a0868803121562000524578081fd5b85516001600160401b03808211156200053b578283fd5b6200054989838a016200047d565b965060208801519150808211156200055f578283fd5b6200056d89838a016200047d565b604089015190965091506001600160a01b03821682146200058c578283fd5b606088015191945080821115620005a1578283fd5b620005af89838a016200047d565b93506080880151915080821115620005c5578283fd5b50620005d4888289016200047d565b9150509295509295909350565b60008151808452620005fb81602086016020860162000641565b601f01601f19169290920160200192915050565b604081526000620006246040830185620005e1565b8281036020840152620006388185620005e1565b95945050505050565b60005b838110156200065e57818101518382015260200162000644565b838111156200066e576000848401525b50505050565b600181811c908216806200068957607f821691505b60208210811415620006ab57634e487b7160e01b600052602260045260246000fd5b50919050565b634e487b7160e01b600052604160045260246000fd5b61320080620006d76000396000f3fe608060405234801561001057600080fd5b50600436106101f05760003560e01c8063715018a61161010f578063b9c4d9fb116100a2578063e8a3d48511610071578063e8a3d4851461045e578063e985e9c514610466578063eb12d61e146104a2578063f2fde38b146104b557600080fd5b8063b9c4d9fb1461041b578063c0ac99831461043b578063c87b56dd14610443578063e5c8b03d1461045657600080fd5b806395d89b41116100de57806395d89b41146103da57806399e0dd7c146103e2578063a22cb465146103f5578063b88d4fde1461040857600080fd5b8063715018a61461039b5780637df73e27146103a35780638da5cb5b146103b6578063938e3d7b146103c757600080fd5b80632f745c59116101875780636308f1cd116101565780636308f1cd146103305780636352211e14610362578063672a94001461037557806370a082311461038857600080fd5b80632f745c59146102e457806342842e0e146102f757806342966c681461030a5780634f6ccce71461031d57600080fd5b80630e316ab7116101c35780630e316ab71461028c5780630ebd4c7f1461029f57806318160ddd146102bf57806323b872dd146102d157600080fd5b806301ffc9a7146101f557806306fdde0314610237578063081812fc1461024c578063095ea7b314610277575b600080fd5b610222610203366004612d03565b6001600160e01b03191660009081526002602052604090205460ff1690565b60405190151581526020015b60405180910390f35b61023f6104c8565b60405161022e9190612fec565b61025f61025a366004612d6e565b610556565b6040516001600160a01b03909116815260200161022e565b61028a610285366004612cd8565b6105f0565b005b61028a61029a366004612b96565b61076f565b6102b26102ad366004612d6e565b6107d5565b60405161022e9190612fd9565b600c545b60405190815260200161022e565b61028a6102df366004612bea565b610921565b6102c36102f2366004612cd8565b6109ae565b61028a610305366004612bea565b610a78565b61028a610318366004612d6e565b610a93565b6102c361032b366004612d6e565b610b17565b61034361033e366004612d86565b610bc9565b604080516001600160a01b03909316835260208301919091520161022e565b61025f610370366004612d6e565b610c0f565b61028a610383366004612da7565b610ca0565b6102c3610396366004612b96565b610e45565b61028a610ee1565b6102226103b1366004612b96565b610f85565b6000546001600160a01b031661025f565b61028a6103d5366004612d3b565b610f92565b61023f610ff5565b61028a6103f0366004612d3b565b611002565b61028a610403366004612ca7565b611065565b61028a610416366004612c2a565b61112a565b61042e610429366004612d6e565b6111b8565b60405161022e9190612f98565b61023f611309565b61023f610451366004612d6e565b611316565b61028a6113ac565b61023f6113b7565b610222610474366004612bb2565b6001600160a01b03918216600090815260096020908152604080832093909416825291909152205460ff1690565b61028a6104b0366004612b96565b6113c4565b61028a6104c3366004612b96565b611427565b600e80546104d59061311d565b80601f01602080910402602001604051908101604052809291908181526020018280546105019061311d565b801561054e5780601f106105235761010080835404028352916020019161054e565b820191906000526020600020905b81548152906001019060200180831161053157829003601f168201915b505050505081565b6000818152600660205260408120546001600160a01b03166105d45760405162461bcd60e51b815260206004820152602c60248201527f4552433732313a20617070726f76656420717565727920666f72206e6f6e657860448201526b34b9ba32b73a103a37b5b2b760a11b60648201526084015b60405180910390fd5b506000908152600760205260409020546001600160a01b031690565b60006105fb82610c0f565b9050806001600160a01b0316836001600160a01b031614156106855760405162461bcd60e51b815260206004820152602160248201527f4552433732313a20617070726f76616c20746f2063757272656e74206f776e6560448201527f720000000000000000000000000000000000000000000000000000000000000060648201526084016105cb565b336001600160a01b03821614806106a157506106a18133610474565b6107135760405162461bcd60e51b815260206004820152603860248201527f4552433732313a20617070726f76652063616c6c6572206973206e6f74206f7760448201527f6e6572206e6f7220617070726f76656420666f7220616c6c000000000000000060648201526084016105cb565b60008281526007602052604080822080546001600160a01b0319166001600160a01b0387811691821790925591518593918516917f8c5be1e5ebec7d5bd14f71427d1e84f3dd0314c0f7b2291e5b200ac8c7c3b92591a4505050565b6000546001600160a01b031633146107c95760405162461bcd60e51b815260206004820181905260248201527f4f776e61626c653a2063616c6c6572206973206e6f7420746865206f776e657260448201526064016105cb565b6107d2816115d4565b50565b6000818152601060209081526040808320805482518185028101850190935280835260609493849084015b82821015610848576000848152602090819020604080518082019091526002850290910180546001600160a01b03168252600190810154828401529083529092019101610800565b5050505090506000815167ffffffffffffffff81111561087857634e487b7160e01b600052604160045260246000fd5b6040519080825280602002602001820160405280156108a1578160200160208202803683370190505b50905060005b8251811015610919578281815181106108d057634e487b7160e01b600052603260045260246000fd5b6020026020010151602001518282815181106108fc57634e487b7160e01b600052603260045260246000fd5b60209081029190910101528061091181613158565b9150506108a7565b509392505050565b61092c335b82611616565b61099e5760405162461bcd60e51b815260206004820152603160248201527f4552433732313a207472616e736665722063616c6c6572206973206e6f74206f60448201527f776e6572206e6f7220617070726f76656400000000000000000000000000000060648201526084016105cb565b6109a983838361170d565b505050565b60006109b983610e45565b8210610a2d5760405162461bcd60e51b815260206004820152602b60248201527f455243373231456e756d657261626c653a206f776e657220696e646578206f7560448201527f74206f6620626f756e647300000000000000000000000000000000000000000060648201526084016105cb565b6001600160a01b0383166000908152600a60205260409020805483908110610a6557634e487b7160e01b600052603260045260246000fd5b9060005260206000200154905092915050565b6109a98383836040518060200160405280600081525061112a565b610a9c33610926565b610b0e5760405162461bcd60e51b815260206004820152603060248201527f4552433732314275726e61626c653a2063616c6c6572206973206e6f74206f7760448201527f6e6572206e6f7220617070726f7665640000000000000000000000000000000060648201526084016105cb565b6107d281611762565b6000610b22600c5490565b8210610b965760405162461bcd60e51b815260206004820152602c60248201527f455243373231456e756d657261626c653a20676c6f62616c20696e646578206f60448201527f7574206f6620626f756e6473000000000000000000000000000000000000000060648201526084016105cb565b600c8281548110610bb757634e487b7160e01b600052603260045260246000fd5b90600052602060002001549050919050565b60106020528160005260406000208181548110610be557600080fd5b6000918252602090912060029091020180546001909101546001600160a01b039091169250905082565b6000818152600660205260408120546001600160a01b031680610c9a5760405162461bcd60e51b815260206004820152602960248201527f4552433732313a206f776e657220717565727920666f72206e6f6e657869737460448201527f656e7420746f6b656e000000000000000000000000000000000000000000000060648201526084016105cb565b92915050565b6000546001600160a01b03163314610cfa5760405162461bcd60e51b815260206004820181905260248201527f4f776e61626c653a2063616c6c6572206973206e6f7420746865206f776e657260448201526064016105cb565b6040516bffffffffffffffffffffffff193060601b16602082015260348101879052610ddc9060019060540160408051601f198184030181529082905280516020918201207f19457468657265756d205369676e6564204d6573736167653a0a33320000000091830191909152603c820152605c0160408051601f198184030181528282528051602091820120600084529083018083525260ff891690820152606081018790526080810186905260a0016020604051602081039080840390855afa158015610dcd573d6000803e3d6000fd5b50505060206040510351610f85565b610e285760405162461bcd60e51b815260206004820152601960248201527f6f776e65722073686f756c64207369676e20746f6b656e49640000000000000060448201526064016105cb565b610e33338784611774565b610e3d8682611adb565b505050505050565b60006001600160a01b038216610ec35760405162461bcd60e51b815260206004820152602a60248201527f4552433732313a2062616c616e636520717565727920666f7220746865207a6560448201527f726f20616464726573730000000000000000000000000000000000000000000060648201526084016105cb565b6001600160a01b038216600090815260086020526040902054610c9a565b6000546001600160a01b03163314610f3b5760405162461bcd60e51b815260206004820181905260248201527f4f776e61626c653a2063616c6c6572206973206e6f7420746865206f776e657260448201526064016105cb565b600080546040516001600160a01b03909116907f8be0079c531659141344cd1fd0a4f28419497f9722a3daafe3b4186f6b6457e0908390a3600080546001600160a01b0319169055565b6000610c9a600183611b62565b6000546001600160a01b03163314610fec5760405162461bcd60e51b815260206004820181905260248201527f4f776e61626c653a2063616c6c6572206973206e6f7420746865206f776e657260448201526064016105cb565b6107d281611c00565b600f80546104d59061311d565b6000546001600160a01b0316331461105c5760405162461bcd60e51b815260206004820181905260248201527f4f776e61626c653a2063616c6c6572206973206e6f7420746865206f776e657260448201526064016105cb565b6107d281611c13565b6001600160a01b0382163314156110be5760405162461bcd60e51b815260206004820152601960248201527f4552433732313a20617070726f766520746f2063616c6c65720000000000000060448201526064016105cb565b3360008181526009602090815260408083206001600160a01b03871680855290835292819020805460ff191686151590811790915590519081529192917f17307eab39ab6107e8899845ad3d59bd9653f200f220920489ca2b5937696c31910160405180910390a35050565b6111343383611616565b6111a65760405162461bcd60e51b815260206004820152603160248201527f4552433732313a207472616e736665722063616c6c6572206973206e6f74206f60448201527f776e6572206e6f7220617070726f76656400000000000000000000000000000060648201526084016105cb565b6111b284848484611c26565b50505050565b6000818152601060209081526040808320805482518185028101850190935280835260609493849084015b8282101561122b576000848152602090819020604080518082019091526002850290910180546001600160a01b031682526001908101548284015290835290920191016111e3565b5050505090506000815167ffffffffffffffff81111561125b57634e487b7160e01b600052604160045260246000fd5b604051908082528060200260200182016040528015611284578160200160208202803683370190505b50905060005b8251811015610919578281815181106112b357634e487b7160e01b600052603260045260246000fd5b6020026020010151600001518282815181106112df57634e487b7160e01b600052603260045260246000fd5b6001600160a01b03909216602092830291909101909101528061130181613158565b91505061128a565b600480546104d59061311d565b6000818152600660205260409020546060906001600160a01b03166113a35760405162461bcd60e51b815260206004820152602f60248201527f4552433732314d657461646174613a2055524920717565727920666f72206e6f60448201527f6e6578697374656e7420746f6b656e000000000000000000000000000000000060648201526084016105cb565b610c9a82611caf565b6113b5336115d4565b565b600380546104d59061311d565b6000546001600160a01b0316331461141e5760405162461bcd60e51b815260206004820181905260248201527f4f776e61626c653a2063616c6c6572206973206e6f7420746865206f776e657260448201526064016105cb565b6107d281611de6565b6000546001600160a01b031633146114815760405162461bcd60e51b815260206004820181905260248201527f4f776e61626c653a2063616c6c6572206973206e6f7420746865206f776e657260448201526064016105cb565b6001600160a01b0381166114fd5760405162461bcd60e51b815260206004820152602660248201527f4f776e61626c653a206e6577206f776e657220697320746865207a65726f206160448201527f646472657373000000000000000000000000000000000000000000000000000060648201526084016105cb565b600080546040516001600160a01b03808516939216917f8be0079c531659141344cd1fd0a4f28419497f9722a3daafe3b4186f6b6457e091a3600080546001600160a01b0319166001600160a01b0392909216919091179055565b6115628282611b62565b156115af5760405162461bcd60e51b815260206004820152601f60248201527f526f6c65733a206163636f756e7420616c72656164792068617320726f6c650060448201526064016105cb565b6001600160a01b0316600090815260209190915260409020805460ff19166001179055565b6115df600182611e28565b6040516001600160a01b038216907f3525e22824a8a7df2c9a6029941c824cf95b6447f1e13d5128fd3826d35afe8b90600090a250565b6000818152600660205260408120546001600160a01b031661168f5760405162461bcd60e51b815260206004820152602c60248201527f4552433732313a206f70657261746f7220717565727920666f72206e6f6e657860448201526b34b9ba32b73a103a37b5b2b760a11b60648201526084016105cb565b600061169a83610c0f565b9050806001600160a01b0316846001600160a01b031614806116d55750836001600160a01b03166116ca84610556565b6001600160a01b0316145b8061170557506001600160a01b0380821660009081526009602090815260408083209388168352929052205460ff165b949350505050565b611718838383611ec6565b6117228382612077565b6001600160a01b03919091166000908152600a602081815260408084208054868652600b8452918520829055928252600181018355918352909120015550565b6107d261176e82610c0f565b826121af565b61177e83836121c2565b6000815167ffffffffffffffff8111156117a857634e487b7160e01b600052604160045260246000fd5b6040519080825280602002602001820160405280156117d1578160200160208202803683370190505b5090506000825167ffffffffffffffff8111156117fe57634e487b7160e01b600052604160045260246000fd5b604051908082528060200260200182016040528015611827578160200160208202803683370190505b50905060005b8351811015611a905760006001600160a01b031684828151811061186157634e487b7160e01b600052603260045260246000fd5b6020026020010151600001516001600160a01b031614156118c45760405162461bcd60e51b815260206004820152601560248201527f526563697069656e74202062652070726573656e74000000000000000000000060448201526064016105cb565b8381815181106118e457634e487b7160e01b600052603260045260246000fd5b602002602001015160200151600014156119405760405162461bcd60e51b815260206004820152601660248201527f4665652076616c75652020626520706f7369746976650000000000000000000060448201526064016105cb565b6000858152601060205260409020845185908390811061197057634e487b7160e01b600052603260045260246000fd5b602090810291909101810151825460018082018555600094855293839020825160029092020180546001600160a01b0319166001600160a01b0390921691909117815591015191015583518490829081106119db57634e487b7160e01b600052603260045260246000fd5b602002602001015160000151838281518110611a0757634e487b7160e01b600052603260045260246000fd5b60200260200101906001600160a01b031690816001600160a01b031681525050838181518110611a4757634e487b7160e01b600052603260045260246000fd5b602002602001015160200151828281518110611a7357634e487b7160e01b600052603260045260246000fd5b602090810291909101015280611a8881613158565b91505061182d565b50825115611ad4577f99aba1d63749cfd5ad1afda7c4663840924d54eb5f005bbbeadedc6ec13674b2848383604051611acb93929190612fff565b60405180910390a15b5050505050565b6000828152600660205260409020546001600160a01b0316611b545760405162461bcd60e51b815260206004820152602c60248201527f4552433732314d657461646174613a2055524920736574206f66206e6f6e657860448201526b34b9ba32b73a103a37b5b2b760a11b60648201526084016105cb565b611b5e8282612247565b5050565b60006001600160a01b038216611be05760405162461bcd60e51b815260206004820152602260248201527f526f6c65733a206163636f756e7420697320746865207a65726f20616464726560448201527f737300000000000000000000000000000000000000000000000000000000000060648201526084016105cb565b506001600160a01b03166000908152602091909152604090205460ff1690565b8051611b5e906003906020840190612a50565b8051611b5e906004906020840190612a50565b611c3184848461170d565b611c3d84848484612266565b6111b25760405162461bcd60e51b815260206004820152603260248201527f4552433732313a207472616e7366657220746f206e6f6e20455243373231526560448201527f63656976657220696d706c656d656e746572000000000000000000000000000060648201526084016105cb565b60008181526005602052604090208054606091610c9a91611ccf9061311d565b80601f0160208091040260200160405190810160405280929190818152602001828054611cfb9061311d565b8015611d485780601f10611d1d57610100808354040283529160200191611d48565b820191906000526020600020905b815481529060010190602001808311611d2b57829003601f168201915b505050505060048054611d5a9061311d565b80601f0160208091040260200160405190810160405280929190818152602001828054611d869061311d565b8015611dd35780601f10611da857610100808354040283529160200191611dd3565b820191906000526020600020905b815481529060010190602001808311611db657829003601f168201915b50505050506123fc90919063ffffffff16565b611df1600182611558565b6040516001600160a01b038216907f47d1c22a25bb3a5d4e481b9b1e6944c2eade3181a0a20b495ed61d35b5323f2490600090a250565b611e328282611b62565b611ea45760405162461bcd60e51b815260206004820152602160248201527f526f6c65733a206163636f756e7420646f6573206e6f74206861766520726f6c60448201527f650000000000000000000000000000000000000000000000000000000000000060648201526084016105cb565b6001600160a01b0316600090815260209190915260409020805460ff19169055565b826001600160a01b0316611ed982610c0f565b6001600160a01b031614611f555760405162461bcd60e51b815260206004820152602960248201527f4552433732313a207472616e73666572206f6620746f6b656e2074686174206960448201527f73206e6f74206f776e000000000000000000000000000000000000000000000060648201526084016105cb565b6001600160a01b038216611fd05760405162461bcd60e51b8152602060048201526024808201527f4552433732313a207472616e7366657220746f20746865207a65726f2061646460448201527f726573730000000000000000000000000000000000000000000000000000000060648201526084016105cb565b611fd9816125f3565b6001600160a01b0383166000908152600860205260409020611ffa9061262e565b6001600160a01b038216600090815260086020526040902061201b9061263f565b60008181526006602052604080822080546001600160a01b0319166001600160a01b0386811691821790925591518493918716917fddf252ad1be2c89b69c2b068fc378daa952ba7f163c4a11628f55a4df523b3ef91a4505050565b6001600160a01b0382166000908152600a602052604081205461209b90600161265c565b6000838152600b602052604090205490915080821461215e576001600160a01b0384166000908152600a602052604081208054849081106120ec57634e487b7160e01b600052603260045260246000fd5b9060005260206000200154905080600a6000876001600160a01b03166001600160a01b03168152602001908152602001600020838154811061213e57634e487b7160e01b600052603260045260246000fd5b6000918252602080832090910192909255918252600b9052604090208190555b6001600160a01b0384166000908152600a6020526040902080548061219357634e487b7160e01b600052603160045260246000fd5b6001900381819060005260206000200160009055905550505050565b6121b982826126bf565b611b5e816126eb565b6121cc8282612722565b6001600160a01b03919091166000908152600a602090815260408083208054858552600b84528285208190556001808201835591855283852001859055600c8054868652600d909452918420839055820181559091527fdf6966c971051c3d54ec59162606531493a51404a002842f56009d7e5cf4a8c70155565b600082815260056020908152604090912082516109a992840190612a50565b60006001600160a01b0384163b61227f57506001611705565b6000806001600160a01b038616630a85bd0160e11b338988886040516024016122ab9493929190612f5c565b60408051601f198184030181529181526020820180517bffffffffffffffffffffffffffffffffffffffffffffffffffffffff166001600160e01b03199094169390931790925290516122fe9190612f40565b6000604051808303816000865af19150503d806000811461233b576040519150601f19603f3d011682016040523d82523d6000602084013e612340565b606091505b5091509150816123c85780511561235a5780518082602001fd5b60405162461bcd60e51b815260206004820152603260248201527f4552433732313a207472616e7366657220746f206e6f6e20455243373231526560448201527f63656976657220696d706c656d656e746572000000000000000000000000000060648201526084016105cb565b6000818060200190518101906123de9190612d1f565b6001600160e01b031916630a85bd0160e11b14935061170592505050565b805182516060918491849160009161241491906130c2565b67ffffffffffffffff81111561243a57634e487b7160e01b600052604160045260246000fd5b6040519080825280601f01601f191660200182016040528015612464576020820181803683370190505b5090506000805b84518110156125275784818151811061249457634e487b7160e01b600052603260045260246000fd5b01602001517fff000000000000000000000000000000000000000000000000000000000000001683836124c681613158565b9450815181106124e657634e487b7160e01b600052603260045260246000fd5b60200101907effffffffffffffffffffffffffffffffffffffffffffffffffffffffffffff1916908160001a9053508061251f81613158565b91505061246b565b5060005b83518110156125e75783818151811061255457634e487b7160e01b600052603260045260246000fd5b01602001517fff0000000000000000000000000000000000000000000000000000000000000016838361258681613158565b9450815181106125a657634e487b7160e01b600052603260045260246000fd5b60200101907effffffffffffffffffffffffffffffffffffffffffffffffffffffffffffff1916908160001a905350806125df81613158565b91505061252b565b50909695505050505050565b6000818152600760205260409020546001600160a01b0316156107d257600090815260076020526040902080546001600160a01b0319169055565b805461263b90600161265c565b9055565b600181600001600082825461265491906130c2565b909155505050565b6000828211156126ae5760405162461bcd60e51b815260206004820152601e60248201527f536166654d6174683a207375627472616374696f6e206f766572666c6f77000060448201526064016105cb565b6126b882846130da565b9392505050565b6126c98282612858565b6126d38282612077565b6000818152600b6020526040812055611b5e81612966565b600081815260056020526040902080546127049061311d565b1590506107d25760008181526005602052604081206107d291612ad4565b6001600160a01b0382166127785760405162461bcd60e51b815260206004820181905260248201527f4552433732313a206d696e7420746f20746865207a65726f206164647265737360448201526064016105cb565b6000818152600660205260409020546001600160a01b0316156127dd5760405162461bcd60e51b815260206004820152601c60248201527f4552433732313a20746f6b656e20616c7265616479206d696e7465640000000060448201526064016105cb565b600081815260066020908152604080832080546001600160a01b0319166001600160a01b03871690811790915583526008909152902061281c9061263f565b60405181906001600160a01b038416906000907fddf252ad1be2c89b69c2b068fc378daa952ba7f163c4a11628f55a4df523b3ef908290a45050565b816001600160a01b031661286b82610c0f565b6001600160a01b0316146128e75760405162461bcd60e51b815260206004820152602560248201527f4552433732313a206275726e206f6620746f6b656e2074686174206973206e6f60448201527f74206f776e00000000000000000000000000000000000000000000000000000060648201526084016105cb565b6128f0816125f3565b6001600160a01b03821660009081526008602052604090206129119061262e565b60008181526006602052604080822080546001600160a01b0319169055518291906001600160a01b038516907fddf252ad1be2c89b69c2b068fc378daa952ba7f163c4a11628f55a4df523b3ef908390a45050565b600c5460009061297790600161265c565b6000838152600d6020526040812054600c80549394509092849081106129ad57634e487b7160e01b600052603260045260246000fd5b9060005260206000200154905080600c83815481106129dc57634e487b7160e01b600052603260045260246000fd5b6000918252602080832090910192909255828152600d90915260409020829055600c805480612a1b57634e487b7160e01b600052603160045260246000fd5b600190038181906000526020600020016000905590556000600d60008681526020019081526020016000208190555050505050565b828054612a5c9061311d565b90600052602060002090601f016020900481019282612a7e5760008555612ac4565b82601f10612a9757805160ff1916838001178555612ac4565b82800160010185558215612ac4579182015b82811115612ac4578251825591602001919060010190612aa9565b50612ad0929150612b0a565b5090565b508054612ae09061311d565b6000825580601f10612af0575050565b601f0160209004906000526020600020908101906107d291905b5b80821115612ad05760008155600101612b0b565b600067ffffffffffffffff831115612b3957612b39613189565b612b4c601f8401601f1916602001613091565b9050828152838383011115612b6057600080fd5b828260208301376000602084830101529392505050565b600082601f830112612b87578081fd5b6126b883833560208501612b1f565b600060208284031215612ba7578081fd5b81356126b88161319f565b60008060408385031215612bc4578081fd5b8235612bcf8161319f565b91506020830135612bdf8161319f565b809150509250929050565b600080600060608486031215612bfe578081fd5b8335612c098161319f565b92506020840135612c198161319f565b929592945050506040919091013590565b60008060008060808587031215612c3f578081fd5b8435612c4a8161319f565b93506020850135612c5a8161319f565b925060408501359150606085013567ffffffffffffffff811115612c7c578182fd5b8501601f81018713612c8c578182fd5b612c9b87823560208401612b1f565b91505092959194509250565b60008060408385031215612cb9578182fd5b8235612cc48161319f565b915060208301358015158114612bdf578182fd5b60008060408385031215612cea578182fd5b8235612cf58161319f565b946020939093013593505050565b600060208284031215612d14578081fd5b81356126b8816131b4565b600060208284031215612d30578081fd5b81516126b8816131b4565b600060208284031215612d4c578081fd5b813567ffffffffffffffff811115612d62578182fd5b61170584828501612b77565b600060208284031215612d7f578081fd5b5035919050565b60008060408385031215612d98578182fd5b50508035926020909101359150565b60008060008060008060c08789031215612dbf578384fd5b86359550602087013560ff81168114612dd6578485fd5b94506040870135935060608701359250608087013567ffffffffffffffff80821115612e00578384fd5b818901915089601f830112612e13578384fd5b813581811115612e2557612e25613189565b612e3460208260051b01613091565b80828252602082019150602085018d60208560061b8801011115612e56578788fd5b8795505b83861015612ea8576040818f031215612e71578788fd5b612e79613068565b612e83823561319f565b8135815260208083013581830152908452600196909601959290920191604001612e5a565b509550505060a0890135915080821115612ec0578283fd5b50612ecd89828a01612b77565b9150509295509295509295565b6000815180845260208085019450808401835b83811015612f0957815187529582019590820190600101612eed565b509495945050505050565b60008151808452612f2c8160208601602086016130f1565b601f01601f19169290920160200192915050565b60008251612f528184602087016130f1565b9190910192915050565b60006001600160a01b03808716835280861660208401525083604083015260806060830152612f8e6080830184612f14565b9695505050505050565b6020808252825182820181905260009190848201906040850190845b818110156125e75783516001600160a01b031683529284019291840191600101612fb4565b6020815260006126b86020830184612eda565b6020815260006126b86020830184612f14565b60006060820185835260206060818501528186518084526080860191508288019350845b818110156130485784516001600160a01b031683529383019391830191600101613023565b5050848103604086015261305c8187612eda565b98975050505050505050565b6040805190810167ffffffffffffffff8111828210171561308b5761308b613189565b60405290565b604051601f8201601f1916810167ffffffffffffffff811182821017156130ba576130ba613189565b604052919050565b600082198211156130d5576130d5613173565b500190565b6000828210156130ec576130ec613173565b500390565b60005b8381101561310c5781810151838201526020016130f4565b838111156111b25750506000910152565b600181811c9082168061313157607f821691505b6020821081141561315257634e487b7160e01b600052602260045260246000fd5b50919050565b600060001982141561316c5761316c613173565b5060010190565b634e487b7160e01b600052601160045260246000fd5b634e487b7160e01b600052604160045260246000fd5b6001600160a01b03811681146107d257600080fd5b6001600160e01b0319811681146107d257600080fdfea264697066735822122090129bd087f149f17652ab9ece65e2e8ecc18103eb565adab7f86099707077a264736f6c63430008040033",
  "immutableReferences": {},
  "source": "// SPDX-License-Identifier: MIT\npragma solidity >=0.4.22 <0.9.0;\npragma experimental ABIEncoderV2;\n\nimport \"../lib/interface/IERC721.sol\";\nimport \"../lib/contracts/ERC721Base.sol\";\nimport \"../lib/utils/SignerRole.sol\";\nimport \"../lib/utils/Ownable.sol\";\n\n\n\n\n\ncontract CustomNFT721 is Ownable, SignerRole, IERC721, ERC721Base {\n\n    event CreateERC721(address indexed creator, string name, string symbol);\n\n    constructor (string memory name, string memory symbol, address signer, string memory contractURI, string memory tokenURIPrefix) ERC721Base(name, symbol, contractURI, tokenURIPrefix) {\n        _registerInterface(bytes4(keccak256('MINT_WITH_ADDRESS')));\n        _addSigner(signer);\n        emit CreateERC721(msg.sender, name, symbol);\n    }\n\n    function addSigner(address account) public override onlyOwner {\n        _addSigner(account);\n    }\n\n    function removeSigner(address account) public onlyOwner {\n        _removeSigner(account);\n    }\n\n    function mint(uint256 tokenId, uint8 v, bytes32 r, bytes32 s, Fee[] memory _fees, string memory tokenURI) onlyOwner public {\n        require(isSigner(ecrecover(keccak256(abi.encodePacked(\"\\x19Ethereum Signed Message:\\n32\", keccak256(abi.encodePacked(this, tokenId)))), v, r, s)), \"owner should sign tokenId\");\n        _mint(msg.sender, tokenId, _fees);\n        _setTokenURI(tokenId, tokenURI);\n    }\n\n    function setTokenURIPrefix(string memory tokenURIPrefix) public onlyOwner {\n        _setTokenURIPrefix(tokenURIPrefix);\n    }\n\n    function setContractURI(string memory contractURI) public onlyOwner {\n        _setContractURI(contractURI);\n    }\n\n}\n\n",
  "sourcePath": "/Users/linyouxiang/waibao-env/gitlabs/move-contracts/contracts/token/CustomNFT721.sol",
  "compiler": {
    "name": "solc",
    "version": "0.8.4+commit.c7e474f2.Emscripten.clang"
  },
  "schemaVersion": "3.3.3",
  "updatedAt": "2021-11-09T02:33:10.285Z",
  "devdoc": {
    "kind": "dev",
    "methods": {
      "approve(address,uint256)": {
        "details": "Approves another address to transfer the given token ID The zero address indicates there is no approved address. There can only be one approved address per token at a given time. Can only be called by the token owner or an approved operator.",
        "params": {
          "to": "address to be approved for the given token ID",
          "tokenId": "uint256 ID of the token to be approved"
        }
      },
      "balanceOf(address)": {
        "details": "Gets the balance of the specified address.",
        "params": {
          "owner": "address to query the balance of"
        },
        "returns": {
          "_0": "uint256 representing the amount owned by the passed address"
        }
      },
      "burn(uint256)": {
        "details": "Burns a specific ERC721 token.",
        "params": {
          "tokenId": "uint256 id of the ERC721 token to be burned."
        }
      },
      "getApproved(uint256)": {
        "details": "Gets the approved address for a token ID, or zero if no address set Reverts if the token ID does not exist.",
        "params": {
          "tokenId": "uint256 ID of the token to query the approval of"
        },
        "returns": {
          "_0": "address currently approved for the given token ID"
        }
      },
      "isApprovedForAll(address,address)": {
        "details": "Tells whether an operator is approved by a given owner.",
        "params": {
          "operator": "operator address which you want to query the approval of",
          "owner": "owner address which you want to query the approval of"
        },
        "returns": {
          "_0": "bool whether the given operator is approved by the given owner"
        }
      },
      "owner()": {
        "details": "Returns the address of the current owner."
      },
      "ownerOf(uint256)": {
        "details": "Gets the owner of the specified token ID.",
        "params": {
          "tokenId": "uint256 ID of the token to query the owner of"
        },
        "returns": {
          "_0": "address currently marked as the owner of the given token ID"
        }
      },
      "renounceOwnership()": {
        "details": "Leaves the contract without owner. It will not be possible to call `onlyOwner` functions anymore. Can only be called by the current owner. NOTE: Renouncing ownership will leave the contract without an owner, thereby removing any functionality that is only available to the owner."
      },
      "safeTransferFrom(address,address,uint256)": {
        "details": "Safely transfers the ownership of a given token ID to another address If the target address is a contract, it must implement {IERC721Receiver-onERC721Received}, which is called upon a safe transfer, and return the magic value `bytes4(keccak256(\"onERC721Received(address,address,uint256,bytes)\"))`; otherwise, the transfer is reverted. Requires the msg.sender to be the owner, approved, or operator",
        "params": {
          "from": "current owner of the token",
          "to": "address to receive the ownership of the given token ID",
          "tokenId": "uint256 ID of the token to be transferred"
        }
      },
      "safeTransferFrom(address,address,uint256,bytes)": {
        "details": "Safely transfers the ownership of a given token ID to another address If the target address is a contract, it must implement {IERC721Receiver-onERC721Received}, which is called upon a safe transfer, and return the magic value `bytes4(keccak256(\"onERC721Received(address,address,uint256,bytes)\"))`; otherwise, the transfer is reverted. Requires the _msgSender() to be the owner, approved, or operator",
        "params": {
          "_data": "bytes data to send along with a safe transfer check",
          "from": "current owner of the token",
          "to": "address to receive the ownership of the given token ID",
          "tokenId": "uint256 ID of the token to be transferred"
        }
      },
      "setApprovalForAll(address,bool)": {
        "details": "Sets or unsets the approval of a given operator An operator is allowed to transfer all tokens of the sender on their behalf.",
        "params": {
          "approved": "representing the status of the approval to be set",
          "to": "operator address to set the approval"
        }
      },
      "supportsInterface(bytes4)": {
        "details": "See {IERC165-supportsInterface}. Time complexity O(1), guaranteed to always use less than 30 000 gas."
      },
      "tokenByIndex(uint256)": {
        "details": "Gets the token ID at a given index of all the tokens in this contract Reverts if the index is greater or equal to the total number of tokens.",
        "params": {
          "index": "uint256 representing the index to be accessed of the tokens list"
        },
        "returns": {
          "_0": "uint256 token ID at the given index of the tokens list"
        }
      },
      "tokenOfOwnerByIndex(address,uint256)": {
        "details": "Gets the token ID at a given index of the tokens list of the requested owner.",
        "params": {
          "index": "uint256 representing the index to be accessed of the requested tokens list",
          "owner": "address owning the tokens list to be accessed"
        },
        "returns": {
          "_0": "uint256 token ID at the given index of the tokens list owned by the requested address"
        }
      },
      "tokenURI(uint256)": {
        "details": "Returns an URI for a given token ID. Throws if the token ID does not exist. May return an empty string.",
        "params": {
          "tokenId": "uint256 ID of the token to query"
        }
      },
      "totalSupply()": {
        "details": "Gets the total amount of tokens stored by the contract.",
        "returns": {
          "_0": "uint256 representing the total amount of tokens"
        }
      },
      "transferFrom(address,address,uint256)": {
        "details": "Transfers the ownership of a given token ID to another address. Usage of this method is discouraged, use {safeTransferFrom} whenever possible. Requires the msg.sender to be the owner, approved, or operator.",
        "params": {
          "from": "current owner of the token",
          "to": "address to receive the ownership of the given token ID",
          "tokenId": "uint256 ID of the token to be transferred"
        }
      },
      "transferOwnership(address)": {
        "details": "Transfers ownership of the contract to a new account (`newOwner`). Can only be called by the current owner."
      }
    },
    "version": 1
  },
  "userdoc": {
    "kind": "user",
    "methods": {},
    "version": 1
  }
}